:100000000C9462000C948A000C948A000C948A0070
:100010000C948A000C948A000C948A000C948A0038
:100020000C948A000C948A000C948A000C948A0028
:100030000C948A000C948A000C948A000C948A0018
:100040000C942C050C948A000C94FA040C94D4049F
:100050000C948A000C948A000C948A000C948A00F8
:100060000C948A000C948A000000000024002700F1
:100070002A0000000000250028002B0000000000DE
:1000800023002600290004040404040404040202DA
:100090000202020203030303030301020408102007
:1000A0004080010204081020010204081020000012
:1000B0000008000201000003040700000000000027
:1000C0000000760511241FBECFEFD8E0DEBFCDBF04
:1000D00011E0A0E0B1E0E0E6F4E102C005900D928D
:1000E000A032B107D9F722E0A0E2B1E001C01D9231
:1000F000A730B207E1F710E0C2E6D0E004C02197D4
:10010000FE010E94190AC136D107C9F70E942006D4
:100110000C942E0A0C940000AF92BF92CF92DF9203
:10012000EF92FF920F931F93CF93DF936C017B01AC
:100130008B01040F151FEB015E01AE18BF08C0173D
:10014000D10759F06991D601ED91FC910190F081B0
:10015000E02DC6010995892B79F7C501DF91CF9173
:100160001F910F91FF90EF90DF90CF90BF90AF90D5
:100170000895FC01538D448D252F30E0842F90E0AD
:10018000821B930B541710F0CF9608950197089592
:10019000FC01918D828D981761F0A28DAE0FBF2F5B
:1001A000B11D5D968C91928D9F5F9F73928F90E0B1
:1001B00008958FEF9FEF0895FC01918D828D981720
:1001C00031F0828DE80FF11D858D90E008958FEF5D
:1001D0009FEF0895FC01918D228D892F90E0805C26
:1001E0009F4F821B91098F73992708958DE291E0AB
:1001F0000E94EA0021E0892B09F420E0822F089573
:1002000080E090E0892B29F00E94F60081110C9487
:1002100000000895FC01A48DA80FB92FB11DA35AA9
:10022000BF4F2C91848D90E001968F739927848F16
:10023000A689B7892C93A089B1898C918370806439
:100240008C93938D848D981306C00288F389E02DDA
:1002500080818F7D80830895EF92FF920F931F938B
:10026000CF93DF93EC0181E0888F9B8D8C8D981369
:100270001AC0E889F989808185FF15C09FB7F89475
:10028000EE89FF896083E889F989808183708064C1
:1002900080839FBF81E090E0DF91CF911F910F910C
:1002A000FF90EF900895F62E0B8D10E00F5F1F4F1B
:1002B0000F731127E02E8C8D8E110CC00FB607FC2A
:1002C000FACFE889F989808185FFF5CFCE010E94B8
:1002D0000A01F1CFEB8DEC0FFD2FF11DE35AFF4F1B
:1002E000F0829FB7F8940B8FEA89FB898081806246
:1002F000CFCFCF93DF93EC01888D8823B9F0AA8903
:10030000BB89E889F9898C9185FD03C0808186FDD0
:100310000DC00FB607FCF7CF8C9185FFF2CF80811F
:1003200085FFEDCFCE010E940A01E9CFDF91CF9189
:100330000895833081F028F4813099F08230A9F05B
:1003400008958730A9F08830C9F08430B1F48091E5
:1003500080008F7D03C0809180008F778093800024
:10036000089584B58F7784BD089584B58F7DFBCFC4
:100370008091B0008F778093B00008958091B00095
:100380008F7DF9CFCF93DF93282F30E0F901E2552D
:10039000FF4F8491F901E656FF4FD491F901EA57D6
:1003A000FF4FC491CC23A1F081110E949901EC2F41
:1003B000F0E0EE0FFF1FE458FF4FA591B491EC91D0
:1003C000ED2381E090E009F480E0DF91CF91089582
:1003D00080E090E0FACF1F93CF93DF93282F30E097
:1003E000F901E255FF4F8491F901E656FF4FD49190
:1003F000F901EA57FF4FC491CC23A9F0162F8111C0
:100400000E949901EC2FF0E0EE0FFF1FEE58FF4F16
:10041000A591B4918FB7F894EC91111108C0D095C3
:10042000DE23DC938FBFDF91CF911F910895DE2BE8
:10043000F8CFCF93DF93CDEFD1E060E088850E94C5
:10044000EB0160E089850E94EB0161E088850E94F4
:10045000EB0161E08985DF91CF910C94EB01CF93A3
:10046000DF93CDEFD1E061E088850E94EB0161E090
:1004700089850E94EB0160E089850E94EB0160E0C4
:100480008885DF91CF910C94EB0161E089E00C94B9
:10049000EB01CF93DF9390E0FC01E656FF4F2491F0
:1004A0008A579F4FFC0184918823C9F090E0880F00
:1004B000991FFC01E859FF4FA591B491FC01EE583A
:1004C000FF4FC591D49161110DC09FB7F8948C91E5
:1004D000209582238C938881282328839FBFDF91D6
:1004E000CF910895623051F49FB7F8943C91822FD8
:1004F000809583238C93E8812E2BEFCF8FB7F894D0
:10050000EC912E2B2C938FBFEACF0F931F93CF9399
:10051000DF93D82FC8E060E0809105020E94EB01D4
:100520000D2F0D2E000C110B61E0D0FF60E08091CB
:1005300006020E94EB0115950795D02F61E080918E
:1005400005020E94EB01C15031F760E08091050285
:100550000E94EB0161E0809106020E94EB0161E0E4
:10056000809105020E94EB0160E0809106020E94EA
:10057000490283EC90E00197F1F7809106020E9416
:10058000C2018C0181110AC061E0809106020E94C3
:10059000490260E0809106020E94EB01C3ECD0E0CA
:1005A000CE010197F1F761E0809106020E944902B5
:1005B0002197F1F7C8019927DF91CF911F910F91F2
:1005C00008950F931F93CF93DF93D82FE62FF0E07A
:1005D000EF5FFE4F80810DEF11E0ED2FF0E0E35073
:1005E000FE4F8083F801C781C80F0E942F0284E468
:1005F0000E9485020E9419020E942F028D2F806C9A
:100600000E9485028C2F0E9485020E9419020E947E
:100610002F02F80186810E948502DF91CF911F9100
:100620000F910C9419026FE780E00E94E1026FE7DE
:1006300081E00E94E1026FE782E00E94E1026FE741
:1006400083E00E94E102EDEFF1E01082118212825C
:10065000138208950F931F93CF93DF9300D000D0A0
:10066000CDB7DEB730910402ADEFB1E08E010F5F80
:100670001F4FAC014C5F5F4FFC012191CF012D93C7
:10068000BF0161507109FB012081230FF801219303
:100690008F018417950781F70E942F0280E40E9442
:1006A00085020E9419020E942F02809102020E947C
:1006B000850289810E9485028A810E9485028B8140
:1006C0000E9485028C810E9485020E9419020E946C
:1006D0002F02809103020E9485020F900F900F90CD
:1006E0000F90DF91CF911F910F910C9419022FB7AA
:1006F000F8946091290170912A0180912B019091C9
:100700002C012FBF08950F931F938091ED0184FD5D
:1007100018C08091EE010E94C2013091ED0133FBBF
:10072000222720F935FB332730F9232731E0892BA5
:1007300009F030E023278091EC0120FB80F98093C1
:10074000EC018091EC0180FFCCC082FDCAC081FD2C
:10075000A0C082608093EC010E9477036093F9014E
:100760007093FA018093FB019093FC018091EC015E
:1007700080FD27C082FF62C08B7F8093EC0183FDE8
:1007800005C08091F7018F5F8093F7018091EC01A4
:10079000877F80648093EC010E9477036093F90166
:1007A0007093FA018093FB019093FC018091ED011D
:1007B0008E7F8093ED0181FF04C08D7F84608093E4
:1007C000ED018091EC0182FF39C080FF37C00E94AB
:1007D00077030091F9011091FA012091FB0130910A
:1007E000FC01AB01BC01401B510B620B730B8091F0
:1007F000F1019091F201B0E0A0E0481759076A07B3
:100800007B07E0F08091EC0183FD18C01092F701A6
:100810001092F801886080628093EC018091ED0174
:1008200081608D7F8093ED010E9477036093F901D1
:100830007093FA018093FB019093FC010E9477036F
:100840000091F9011091FA012091FB013091FC0116
:10085000AB01BC01401B510B620B730B8091F30188
:100860009091F401B0E0A0E0481759076A077B07B0
:1008700068F08091F701882349F08093F801109285
:10088000F7018091EC0180618093EC011F910F9141
:1008900008950E9477030091F9011091FA012091C7
:1008A000FB013091FC01AB01BC01401B510B620B01
:1008B000730B8091EF019091F001B0E0A0E0481738
:1008C00059076A077B0708F451CF8091EC018460D7
:1008D00080688093EC018091ED0182608093ED014E
:1008E00045CF8091EC018D7F8093EC013FCFCF927B
:1008F000DF92EF92FF9220E034E040E440937C00EE
:1009000080917A00806480937A0080917A0086FDDD
:10091000FCCF8091780060917900762F682F072EA8
:10092000000C880B990BC0902001D0902101E09021
:100930002201F0902301C60ED71EE81EF91EC092B8
:100940002001D0922101E0922201F0922301215056
:100950003109A1F6C701B6012AE0969587957795EA
:1009600067952A95D1F760932001709321018093B8
:100970002201909323010E94B90820E030E040EA70
:1009800050E40E94470920E030E040E85AE30E942A
:10099000470922E530E140E55EE30E941108FF903F
:1009A000EF90DF90CF9008951F920F920FB60F92A5
:1009B00011242F933F934F935F936F937F938F9364
:1009C0009F93AF93BF93EF93FF938DE291E00E94CB
:1009D0000A01FF91EF91BF91AF919F918F917F910C
:1009E0006F915F914F913F912F910F900FBE0F909C
:1009F0001F9018951F920F920FB60F9211242F93EC
:100A00008F939F93EF93FF93E0913D01F0913E010F
:100A10008081E0914301F091440182FD1BC09081EF
:100A2000809146018F5F8F7320914701821741F0BB
:100A3000E0914601F0E0E35DFE4F958F8093460123
:100A4000FF91EF919F918F912F910F900FBE0F907B
:100A50001F9018958081F4CF1F920F920FB60F92BE
:100A600011242F933F938F939F93AF93BF938091C4
:100A7000290190912A01A0912B01B0912C01309174
:100A8000280123E0230F2D3758F50196A11DB11D34
:100A9000209328018093290190932A01A0932B0190
:100AA000B0932C018091240190912501A091260101
:100AB000B09127010196A11DB11D8093240190934F
:100AC0002501A0932601B0932701BF91AF919F917B
:100AD0008F913F912F910F900FBE0F901F901895FF
:100AE00026E8230F0296A11DB11DD2CF0F931F93AD
:100AF000CF93DF93EDE2F1E01382128288EE93E070
:100B0000A0E0B0E084839583A683B78381E191E080
:100B10009183808385EC90E09587848784EC90E0D6
:100B20009787868780EC90E0918B808B81EC90E0BA
:100B3000938B828B82EC90E0958B848B86EC90E09B
:100B4000978B868B118E128E138E148ECDEFD1E083
:100B500083E0888782E0898761E083E00E94490220
:100B600061E089850E944902CCEED1E01B861C869B
:100B70001D861E861F86188A84E08A838CE390E097
:100B80009C838B8384EF91E09E838D8380E991E049
:100B90009A8789878CE291E098878F830DEE11E028
:100BA000F8018081877C8F7B808362E084E00E94F3
:100BB0004902F80180818062808360E08A810E941E
:100BC0004902F8018081877F8083CBEDD1E01882D4
:100BD00019821A821B82188619861A861B861D8620
:100BE0001E86188A1F8680E197E2A0E0B0E08C8321
:100BF0009D83AE83BF8311E01C870E9477036883C7
:100C000079838A839B831D87EAECF1E0108211824D
:100C10001282138210861186128613861486168617
:100C2000108A178688EB9BE0A0E0B0E08483958370
:100C3000A683B7831587DF91CF911F910F910895F8
:100C4000789484B5826084BD84B5816084BD85B5A7
:100C5000826085BD85B5816085BD80916E008160B3
:100C600080936E0010928100809181008260809359
:100C7000810080918100816080938100809180005B
:100C80008160809380008091B10084608093B10086
:100C90008091B00081608093B00080917A00846080
:100CA00080937A0080917A00826080937A008091AC
:100CB0007A00816080937A0080917A0080688093C6
:100CC0007A001092C100E0913D01F0913E0182E076
:100CD0008083E0913901F0913A011082E0913B016B
:100CE000F0913C018FEC808310924501E09141012D
:100CF000F091420186E08083E0913F01F091400154
:100D0000808180618083E0913F01F091400180818A
:100D100088608083E0913F01F0914001808180688C
:100D20008083E0913F01F091400180818F7D80833D
:100D300061E089E00E94490260E084E00E9449028B
:100D40000E9445020E94770420E030E048EC52E423
:100D50000E9447090E9483086C3484E078070CF0F5
:100D600086C00E9445020E94130380E48093010222
:100D700080EC809302028FE8809303028DEF91E074
:100D80000E942A0385E492E09093DA018093D901CE
:100D90009AE0E92EF12C00E010E020E8A22EBB241E
:100DA000B3940E9483030E9477034090DB0150902C
:100DB000DC016090DD017090DE016419750986091F
:100DC00097094090DF015090E0016090E101709040
:100DD000E201641575058605970510F01092000173
:100DE0008091ED0186FD0E9483038091EC0184FFD8
:100DF00015C09091F801913089F48F7E8093EC01B9
:100E0000909300019093E7010E9477036093DB01C8
:100E10007093DC018093DD019093DE0180910001ED
:100E2000882309F4BCC00E94770420E030E048EC3D
:100E300052E40E9447090E948308EB01A092040239
:100E40008DEF91E00E942A0383E0C82ED12C2097D9
:100E5000B9F0CE01B7010E94C4093B01682F8C2D67
:100E60000E94E102E30181E0C81AD108F0CF6C349E
:100E7000744009F478CF60E089E00E94EB0173CF01
:100E8000CD2821F468E480E00E94E1028091D6013F
:100E90008823B1F00E9477034090CA015090CB01A3
:100EA0006090CC017090CD0164197509860997098D
:100EB0006093D2017093D3018093D4019093D501B4
:100EC0008091D601882309F440C06091D2017091CD
:100ED000D3018091D4019091D5014090CE015090E2
:100EE000CF016090D0017090D10164157505860521
:100EF000970558F12091D70121115AC0A301920101
:100F00000E94D809C301B2010E94B4094090CA01ED
:100F10005090CB016090CC017090CD01DC01CB01F1
:100F2000840D951DA61DB71D8093CA019093CB011A
:100F3000A093CC01B093CD01E091D901F091DA01F9
:100F4000309709F00995B092D8010E94770420E00B
:100F500030E048EC52E40E9447090E9483086C3458
:100F600084E07807F4F58091D60181110CC0B0922D
:100F7000D6010E9477036093CA017093CB018093DE
:100F8000CC019093CD010115110509F40ACF0E94FF
:100F9000F600882309F405CF0E94000002CF0E94CA
:100FA0001303109204028DEF91E00E942A036ECF8A
:100FB0001092D6010E9477034090CA015090CB0155
:100FC0006090CC017090CD0164197509860997096C
:100FD0006093D2017093D3018093D4019093D50193
:100FE000ABCF6A3674407CF21092D6010E94770330
:100FF0004090CA015090CB016090CC017090CD011F
:1010000064197509860997096093D2017093D30119
:101010008093D4019093D50160E089E00E94EB01B8
:10102000B2CF0E9425080C940D090E94060958F0C1
:101030000E94FF0840F029F45F3F29F00C94F60865
:1010400051110C9441090C94FC080E941E0968F38C
:101050009923B1F3552391F3951B550BBB27AA2771
:1010600062177307840738F09F5F5F4F220F331FAB
:10107000441FAA1FA9F335D00E2E3AF0E0E832D073
:1010800091505040E695001CCAF72BD0FE2F29D076
:10109000660F771F881FBB1F261737074807AB0748
:1010A000B0E809F0BB0B802DBF01FF2793585F4FBD
:1010B0003AF09E3F510578F00C94F6080C944109E3
:1010C0005F3FE4F3983ED4F3869577956795B7959F
:1010D000F7959F5FC9F7880F911D9695879597F9AA
:1010E0000895E1E0660F771F881FBB1F6217730723
:1010F0008407BA0720F0621B730B840BBA0BEE1F38
:1011000088F7E09508950E948A086894B1110C94BC
:10111000410908950E94260988F09F5798F0B92F39
:101120009927B751B0F0E1F0660F771F881F991F1C
:101130001AF0BA95C9F714C0B13091F00E94400975
:10114000B1E008950C944009672F782F8827B85F85
:1011500039F0B93FCCF3869577956795B395D9F774
:101160003EF490958095709561957F4F8F4F9F4F7E
:101170000895E89409C097FB3EF49095809570958A
:1011800061957F4F8F4F9F4F9923A9F0F92F96E9D3
:10119000BB279395F695879577956795B795F11148
:1011A000F8CFFAF4BB0F11F460FF1BC06F5F7F4FE5
:1011B0008F4F9F4F16C0882311F096E911C07723F7
:1011C00021F09EE8872F762F05C0662371F096E800
:1011D000862F70E060E02AF09A95660F771F881FCF
:1011E000DAF7880F9695879597F9089597F99F678D
:1011F00080E870E060E008959FEF80EC089500249F
:101200000A941616170618060906089500240A946B
:1012100012161306140605060895092E0394000CF1
:1012200011F4882352F0BB0F40F4BF2B11F460FF80
:1012300004C06F5F7F4F8F4F9F4F089557FD9058A9
:10124000440F551F59F05F3F71F04795880F97FB8A
:10125000991F61F09F3F79F0879508951216130644
:101260001406551FF2CF4695F1DF08C01616170673
:101270001806991FF1CF86957105610508940895A8
:10128000E894BB2766277727CB0197F908950E943A
:101290005A090C940D090E94FF0838F00E940609B3
:1012A00020F0952311F00C94F6080C94FC081124FE
:1012B0000C9441090E941E0970F3959FC1F3950F8C
:1012C00050E0551F629FF001729FBB27F00DB11DCA
:1012D000639FAA27F00DB11DAA1F649F6627B00D5A
:1012E000A11D661F829F2227B00DA11D621F739F43
:1012F000B00DA11D621F839FA00D611D221F749F51
:101300003327A00D611D231F849F600D211D822F97
:10131000762F6A2F11249F5750409AF0F1F08823BE
:101320004AF0EE0FFF1FBB1F661F771F881F9150EB
:101330005040A9F79E3F510580F00C94F6080C949C
:1013400041095F3FE4F3983ED4F38695779567951E
:10135000B795F795E7959F5FC1F7FE2B880F911D15
:101360009695879597F90895DB018F939F930E9437
:10137000FA09BF91AF91A29F800D911DA39F900D7F
:10138000B29F900D1124089597FB072E16F4009438
:1013900007D077FD09D00E94050A07FC05D03EF46E
:1013A000909581959F4F0895709561957F4F089511
:1013B000A1E21A2EAA1BBB1BFD010DC0AA1FBB1F59
:1013C000EE1FFF1FA217B307E407F50720F0A21BCB
:1013D000B30BE40BF50B661F771F881F991F1A9438
:1013E00069F760957095809590959B01AC01BD0162
:1013F000CF0108950E941F0AA59F900DB49F900DE4
:10140000A49F800D911D11240895AA1BBB1B51E1BF
:1014100007C0AA1FBB1FA617B70710F0A61BB70B64
:10142000881F991F5A95A9F780959095BC01CD0109
:101430000895EE0FFF1F0590F491E02D0994A29FEF
:10144000B001B39FC001A39F700D811D1124911D98
:10145000B29F700D811D1124911D0895F894FFCF46
:10146000013F065B4F666D7D077F6F004000000007
:10147000002C018C00B9007901EA00C800DC0000F2
:00000001FF
