:100000000C9462000C948A000C948A000C948A0070
:100010000C948A000C948A000C948A000C948A0038
:100020000C948A000C948A000C948A000C948A0028
:100030000C948A000C948A000C948A000C948A0018
:100040000C9494060C948A000C9462060C943C0662
:100050000C948A000C948A000C948A000C948A00F8
:100060000C948A000C948A000000000024002700F1
:100070002A0000000000250028002B0000000000DE
:1000800023002600290004040404040404040202DA
:100090000202020203030303030301020408102007
:1000A0004080010204081020010204081020000012
:1000B0000008000201000003040700000000000027
:1000C0000000DE0611241FBECFEFD8E0DEBFCDBF9B
:1000D00011E0A0E0B1E0E8EDF7E102C005900D927B
:1000E000A233B107D9F722E0A2E3B1E001C01D922B
:1000F000AA32B207E1F710E0C2E6D0E004C02197CF
:10010000FE010E94D50BC136D107C9F70E94A60790
:100110000C94EA0B0C940000AF92BF92CF92DF9246
:10012000EF92FF920F931F93CF93DF936C017B01AC
:100130008B01040F151FEB015E01AE18BF08C0173D
:10014000D10759F06991D601ED91FC910190F081B0
:10015000E02DC6010995892B79F7C501DF91CF9173
:100160001F910F91FF90EF90DF90CF90BF90AF90D5
:100170000895FC01538D448D252F30E0842F90E0AD
:10018000821B930B541710F0CF9608950197089592
:10019000FC01918D828D981761F0A28DAE0FBF2F5B
:1001A000B11D5D968C91928D9F5F9F73928F90E0B1
:1001B00008958FEF9FEF0895FC01918D828D981720
:1001C00031F0828DE80FF11D858D90E008958FEF5D
:1001D0009FEF0895FC01918D228D892F90E0805C26
:1001E0009F4F821B91098F73992708958FE391E0A8
:1001F0000E94EA0021E0892B09F420E0822F089573
:1002000080E090E0892B29F00E94F60081110C9487
:1002100000000895FC01A48DA80FB92FB11DA35AA9
:10022000BF4F2C91848D90E001968F739927848F16
:10023000A689B7892C93A089B1898C918370806439
:100240008C93938D848D981306C00288F389E02DDA
:1002500080818F7D80830895EF92FF920F931F938B
:10026000CF93DF93EC0181E0888F9B8D8C8D981369
:100270001AC0E889F989808185FF15C09FB7F89475
:10028000EE89FF896083E889F989808183708064C1
:1002900080839FBF81E090E0DF91CF911F910F910C
:1002A000FF90EF900895F62E0B8D10E00F5F1F4F1B
:1002B0000F731127E02E8C8D8E110CC00FB607FC2A
:1002C000FACFE889F989808185FFF5CFCE010E94B8
:1002D0000A01F1CFEB8DEC0FFD2FF11DE35AFF4F1B
:1002E000F0829FB7F8940B8FEA89FB898081806246
:1002F000CFCFCF93DF93EC01888D8823B9F0AA8903
:10030000BB89E889F9898C9185FD03C0808186FDD0
:100310000DC00FB607FCF7CF8C9185FFF2CF80811F
:1003200085FFEDCFCE010E940A01E9CFDF91CF9189
:100330000895833081F028F4813099F08230A9F05B
:1003400008958730A9F08830C9F08430B1F48091E5
:1003500080008F7D03C0809180008F778093800024
:10036000089584B58F7784BD089584B58F7DFBCFC4
:100370008091B0008F778093B00008958091B00095
:100380008F7DF9CFCF93DF93282F30E0F901E2552D
:10039000FF4F8491F901E656FF4FD491F901EA57D6
:1003A000FF4FC491CC23A1F081110E949901EC2F41
:1003B000F0E0EE0FFF1FE458FF4FA591B491EC91D0
:1003C000ED2381E090E009F480E0DF91CF91089582
:1003D00080E090E0FACF1F93CF93DF93282F30E097
:1003E000F901E255FF4F8491F901E656FF4FD49190
:1003F000F901EA57FF4FC491CC23A9F0162F8111C0
:100400000E949901EC2FF0E0EE0FFF1FEE58FF4F16
:10041000A591B4918FB7F894EC91111108C0D095C3
:10042000DE23DC938FBFDF91CF911F910895DE2BE8
:10043000F8CFCF93DF93C0E2D2E060E088850E94DE
:10044000EB0160E089850E94EB0161E088850E94F4
:10045000EB0161E08985DF91CF910C94EB01CF93A3
:10046000DF93C0E2D2E061E088850E94EB0161E0A9
:1004700089850E94EB0160E089850E94EB0160E0C4
:100480008885DF91CF910C94EB0161E089E00C94B9
:10049000EB01CF93DF9390E0FC01E656FF4F2491F0
:1004A0008A579F4FFC0184918823C9F090E0880F00
:1004B000991FFC01E859FF4FA591B491FC01EE583A
:1004C000FF4FC591D49161110DC09FB7F8948C91E5
:1004D000209582238C938881282328839FBFDF91D6
:1004E000CF910895623051F49FB7F8943C91822FD8
:1004F000809583238C93E8812E2BEFCF8FB7F894D0
:10050000EC912E2B2C938FBFEACF0F931F93CF9399
:10051000DF93D82FC8E060E0809128020E94EB01B1
:100520000D2F0D2E000C110B61E0D0FF60E08091CB
:1005300029020E94EB0115950795D02F61E080916B
:1005400028020E94EB01C15031F760E0809128023F
:100550000E94EB0161E0809129020E94EB0161E0C1
:10056000809128020E94EB0160E0809129020E94A4
:10057000490283EC90E00197F1F7809129020E94F3
:10058000C2018C0181110AC061E0809129020E94A0
:10059000490260E0809129020E94EB01C3ECD0E0A7
:1005A000CE010197F1F761E0809129020E94490292
:1005B0002197F1F7C8019927DF91CF911F910F91F2
:1005C00008950F931F93CF93DF93D82FE62FF0E07A
:1005D000EF5FFE4F808100E212E0ED2FF0E0E05E81
:1005E000FD4F8083F801C781C80F0E942F0284E469
:1005F0000E9485020E9419020E942F028D2F806C9A
:100600000E9485028C2F0E9485020E9419020E947E
:100610002F02F80186810E948502DF91CF911F9100
:100620000F910C9419026FE780E00E94E1026FE7DE
:1006300081E00E94E1026FE782E00E94E1026FE741
:1006400083E00E94E102E0E2F2E010821182128275
:10065000138208950F931F93CF93DF9300D000D0A0
:10066000CDB7DEB730912702A0E2B2E08E010F5F76
:100670001F4FAC014C5F5F4FFC012191CF012D93C7
:10068000BF0161507109FB012081230FF801219303
:100690008F018417950781F70E942F0280E40E9442
:1006A00085020E9419020E942F02809125020E9459
:1006B000850289810E9485028A810E9485028B8140
:1006C0000E9485028C810E9485020E9419020E946C
:1006D0002F02809126020E9485020F900F900F90AA
:1006E0000F90DF91CF911F910F910C9419022FB7AA
:1006F000F89460913B0170913C0180913D01909193
:100700003E012FBF08950F931F938091100284FD27
:1007100018C0809111020E94C2013091100233FB77
:10072000222720F935FB332730F9232731E0892BA5
:1007300009F030E0232780910F0220FB80F980939D
:100740000F0280910F0280FFCCC082FDCAC081FDE4
:10075000A0C0826080930F020E94770360931C0206
:1007600070931D0280931E0290931F0280910F02CE
:1007700080FD27C082FF62C08B7F80930F0283FDC4
:1007800005C080911A028F5F80931A0280910F0238
:10079000877F806480930F020E94770360931C021E
:1007A00070931D0280931E0290931F02809110028D
:1007B0008E7F8093100281FF04C08D7F84608093C0
:1007C000100280910F0282FF39C080FF37C00E9463
:1007D000770300911C0210911D0220911E0230919E
:1007E0001F02AB01BC01401B510B620B730B8091CC
:1007F000140290911502B0E0A0E0481759076A076B
:100800007B07E0F080910F0283FD18C010921A025E
:1008100010921B028860806280930F028091100208
:1008200081608D7F809310020E94770360931C0289
:1008300070931D0280931E0290931F020E94770303
:1008400000911C0210911D0220911E0230911F0286
:10085000AB01BC01401B510B620B730B8091160264
:1008600090911702B0E0A0E0481759076A077B078C
:1008700068F080911A02882349F080931B0210923D
:100880001A0280910F02806180930F021F910F91D5
:1008900008950E94770300911C0210911D0220917F
:1008A0001E0230911F02AB01BC01401B510B620BB9
:1008B000730B8091120290911302B0E0A0E04817F0
:1008C00059076A077B0708F451CF80910F028460B3
:1008D000806880930F0280911002826080931002E2
:1008E00045CF80910F028D7F80930F023FCFCF9233
:1008F000DF92EF92FF9220E031E040E440937C00F1
:1009000080917A00806480937A0080917A0086FDDD
:10091000FCCF8091780060917900762F682F072EA8
:10092000000C880B990BC0903201D0903301E090FD
:100930003401F0903501C60ED71EE81EF91EC09294
:100940003201D0923301E0923401F092350121500E
:100950003109A1F699278F2D7E2D6D2D60933201DF
:100960007093330180933401909335010E94470ABC
:1009700020E030E040EA50E40E94FE0A20E030E04F
:1009800040E85AE30E94FE0A22E530E140E55EE3DA
:100990000E949F09FF90EF90DF90CF900895CF9233
:1009A000DF92EF92FF921F93CF93DF93EC018C8540
:1009B000882371F00E947703C880D980EA80FB8089
:1009C0006C197D098E099F09688779878A879B87BB
:1009D0001C85112369F1688579858A859B85CC8082
:1009E000DD80EE80FF806C157D058E059F05C8F1CA
:1009F0002D85211126C0A70196010E94940BC701E5
:100A0000B6010E94700BC880D980EA80FB80DC01AF
:100A1000CB018C0D9D1DAE1DBF1D88839983AA83BC
:100A2000BB83EF85F889309709F0099581E08E87BF
:100A3000812FDF91CF911F91FF90EF90DF90CF90AA
:100A400008951C860E947703C880D980EA80FB80C5
:100A50006C197D098E099F09688779878A879B872A
:100A6000E0CF10E0E5CFFC0101900020E9F73197DD
:100A7000AF01481B590BBC018FE391E00C948C0033
:100A80008F929F92AF92BF920F931F93CF93DF935A
:100A9000CDB7DEB7A1970FB6F894DEBF0FBECDBFBE
:100AA00019A2423008F44AE08E010F5D1F4F842ED8
:100AB000912CB12CA12CA50194010E94940BE62F3E
:100AC000B901CA01EA30F4F4E05DD801EE938D017A
:100AD000232B242B252B79F790E080E0109719F039
:100AE000CD010E943305A1960FB6F894DEBF0FBE6C
:100AF000CDBFDF91CF911F910F91BF90AF909F908D
:100B00008F900895E95CE1CF8F929F92AF92BF9250
:100B1000CF92DF92EF92FF928FE191E00E94330536
:100B20000E9477046B017C01AC019B010E946B0B5E
:100B3000882381F082E291E00E9433058EE291E009
:100B4000FF90EF90DF90CF90BF90AF909F908F90ED
:100B50000C94330546015701E894B7F82FEF3FEFA7
:100B60004FE75FE7C501B4010E946B0B81110DC017
:100B70002FEF3FEF4FE75FE7C501B4010E949A09ED
:100B800018161CF486E291E0D7CF2FEF3FEF4FE726
:100B90005FE4C701B6010E94F90A18161CF48AE244
:100BA00091E0CACF2FEF3FEF4FE75FECC701B601EF
:100BB0000E949A0987FDF3CF20E030E0A901C70128
:100BC000B6010E949A0987FF09C06DE28FE391E0A8
:100BD0000E942C01F7FAF094F7F8F0942AE037ED30
:100BE00043EA5BE3C701B6010E942E094B015C0199
:100BF0000E94180A6B017C010E94470A9B01AC010C
:100C0000C501B4010E942D094B015C014AE0C701F6
:100C1000B6010E9440056EE28FE391E00E942C0134
:100C200020E030E040E251E4C501B4010E94FE0A38
:100C30004B015C010E94180A6B01F12CE12C4AE087
:100C4000C701B6010E944005C701B6010E94470ACC
:100C50009B01AC01C501B4010E942D0920E030E0E8
:100C600040E251E40E94FE0A0E94180A90E080E0EF
:100C70004AE00E94400562CF1F920F920FB60F927A
:100C800011242F933F934F935F936F937F938F9391
:100C90009F93AF93BF93EF93FF938FE391E00E94F5
:100CA0000A01FF91EF91BF91AF919F918F917F9139
:100CB0006F915F914F913F912F910F900FBE0F90C9
:100CC0001F9018951F920F920FB60F9211242F9319
:100CD0008F939F93EF93FF93E0914F01F091500119
:100CE0008081E0915501F091560182FD1BC09081F9
:100CF000809158018F5F8F7320915901821741F0C5
:100D0000E0915801F0E0E15CFE4F958F809358012F
:100D1000FF91EF919F918F912F910F900FBE0F90A8
:100D20001F9018958081F4CF1F920F920FB60F92EB
:100D300011242F933F938F939F93AF93BF938091F1
:100D40003B0190913C01A0913D01B0913E01309159
:100D50003A0123E0230F2D3758F50196A11DB11D4F
:100D600020933A0180933B0190933C01A0933D0175
:100D7000B0933E018091360190913701A0913801E6
:100D8000B09139010196A11DB11D80933601909358
:100D90003701A0933801B0933901BF91AF919F9172
:100DA0008F913F912F910F900FBE0F901F9018952C
:100DB00026E8230F0296A11DB11DD2CF0F931F93DA
:100DC000CF93DF93EFE3F1E01382128288EE93E09A
:100DD000A0E0B0E084839583A683B78381E191E0AE
:100DE0009183808385EC90E09587848784EC90E004
:100DF0009787868780EC90E0918B808B81EC90E0E8
:100E0000938B828B82EC90E0958B848B86EC90E0C8
:100E1000978B868B118E128E138E148EC0E2D2E0C9
:100E200083E0888782E0898761E083E00E9449024D
:100E300061E089850E944902CFE0D2E01B861C86D2
:100E40001D861E861F86188A84E08A838CE390E0C4
:100E50009C838B8384EF91E09E838D8380E991E076
:100E60009A8789878CE291E098878F8300E112E06E
:100E7000F8018081877C8F7B808362E084E00E9420
:100E80004902F80180818062808360E08A810E944B
:100E90004902F8018081877F8083CEEFD1E01882FC
:100EA00019821A821B82188619861A861B861D864D
:100EB0001E86188A1F8680E197E2A0E0B0E08C834E
:100EC0009D83AE83BF8311E01C870E9477036883F4
:100ED00079838A839B831D87EDEEF1E01082118276
:100EE0001282138210861186128613861486168645
:100EF000108A178688EB9BE0A0E0B0E0848395839E
:100F0000A683B7831587CCEDD1E0188219821A82A7
:100F10001B82188619861A861B861D861E86188ACD
:100F20001F8688EC90E0A0E0B0E08C839D83AE83C8
:100F3000BF831C870E947703688379838A839B839E
:100F40001D86DF91CF911F910F910895789484B5FC
:100F5000826084BD84B5816084BD85B5826085BDB5
:100F600085B5816085BD80916E00816080936E0043
:100F70001092810080918100826080938100809135
:100F800081008160809381008091800081608093E6
:100F900080008091B10084608093B1008091B000A6
:100FA00081608093B00080917A00846080937A00A1
:100FB00080917A00826080937A0080917A008160CB
:100FC00080937A0080917A00806880937A001092F2
:100FD000C100E0914F01F091500182E08083E091E7
:100FE0004B01F0914C011082E0914D01F0914E01C6
:100FF0008FEC808310925701E0915301F0915401DE
:1010000086E08083E0915101F091520180818061FE
:101010008083E0915101F09152018081886080834A
:10102000E0915101F0915201808180688083E091CC
:101030005101F091520180818F7D808361E089E0D0
:101040000E94490260E084E00E9449020E94450239
:101050000E94770420E030E048EC52E40E94FE0A4F
:101060000E94110A6C3484E078070CF090C00E9452
:1010700045020E94130380E48093240280EC809355
:1010800025028FE88093260280E292E00E942A03E4
:1010900085E492E09093FD018093FC0184E895E063
:1010A0009093EC018093EB019AE0E92EF12C00E0A3
:1010B00010E020E8B22EAA24A3948CED91E00E94C7
:1010C000CF040E9483030E9477034090FE0150905A
:1010D000FF01609000027090010264197509860991
:1010E00097094090020250900302609004027090B1
:1010F0000502641575058605970510F0109200012C
:101100008091100286FD0E94830380910F0284FF6C
:1011100015C090911B02913089F48F7E80930F024D
:101120009093000190930A020E9477036093FE015E
:101130007093FF018093000290930102809100015F
:10114000882309F461C00E94770420E030E048EC75
:1011500052E40E94FE0A0E94110AEB01B09227029B
:1011600080E292E00E942A0383E0C82ED12C2097CF
:10117000B9F0CE01B7010E94800B3B01682F8C2D86
:101180000E94E102E30181E0C81AD108F0CF6C347B
:10119000744009F46ECF60E089E00E94EB0169CFF2
:1011A000CD2821F468E480E00E94E1028DEE91E018
:1011B0000E94CF040E94770420E030E048EC52E423
:1011C0000E94FE0A0E94110A6C3484E078072CF514
:1011D0008091F90181110CC0A092F9010E9477035E
:1011E0006093ED017093EE018093EF019093F00115
:1011F0000115110509F461CF0E94F600882309F456
:101200005CCF0E94000059CF0E9413031092270266
:1012100080E292E00E942A03C9CF6A36744044F308
:101220001092F9010E9477034090ED015090EE0179
:101230006090EF017090F0016419750986099709B3
:101240006093F5017093F6018093F7019093F80194
:1012500060E089E00E94EB01CBCF5058BB27AA2762
:101260000E9445090C94BF0A0E94B10A38F00E94FE
:10127000B80A20F039F49F3F19F426F40C94AE0A12
:101280000EF4E095E7FB0C94A80AE92F0E94D00A1F
:1012900058F3BA17620773078407950720F079F4AB
:1012A000A6F50C94F20A0EF4E0950B2EBA2FA02DA1
:1012B0000B01B90190010C01CA01A0011124FF2703
:1012C000591B99F0593F50F4503E68F11A16F040FE
:1012D000A22F232F342F4427585FF3CF46953795FD
:1012E0002795A795F0405395C9F77EF41F16BA0BC2
:1012F000620B730B840BBAF09150A1F0FF0FBB1F70
:10130000661F771F881FC2F70EC0BA0F621F731FB8
:10131000841F48F4879577956795B795F7959E3F15
:1013200008F0B0CF9395880F08F09927EE0F9795A6
:10133000879508950E94840A08F481E008950E9428
:10134000B3090C94BF0A0E94B80A58F00E94B10A6F
:1013500040F029F45F3F29F00C94A80A51110C9435
:10136000F30A0C94AE0A0E94D00A68F39923B1F3F1
:10137000552391F3951B550BBB27AA2762177307BB
:10138000840738F09F5F5F4F220F331F441FAA1F4F
:10139000A9F335D00E2E3AF0E0E832D0915050400B
:1013A000E695001CCAF72BD0FE2F29D0660F771FB9
:1013B000881FBB1F261737074807AB07B0E809F09F
:1013C000BB0B802DBF01FF2793585F4F3AF09E3F24
:1013D000510578F00C94A80A0C94F30A5F3FE4F3EB
:1013E000983ED4F3869577956795B795F7959F5F67
:1013F000C9F7880F911D9695879597F90895E1E0B3
:10140000660F771F881FBB1F621773078407BA0711
:1014100020F0621B730B840BBA0BEE1F88F7E0956C
:1014200008950E94180A6894B1110C94F30A089563
:101430000E94D80A88F09F5798F0B92F9927B75182
:10144000B0F0E1F0660F771F881F991F1AF0BA9568
:10145000C9F714C0B13091F00E94F20AB1E00895CA
:101460000C94F20A672F782F8827B85F39F0B93FBC
:10147000CCF3869577956795B395D9F73EF490951B
:101480008095709561957F4F8F4F9F4F0895E89499
:1014900009C097FB3EF490958095709561957F4FBC
:1014A0008F4F9F4F9923A9F0F92F96E9BB2793956A
:1014B000F695879577956795B795F111F8CFFAF47A
:1014C000BB0F11F460FF1BC06F5F7F4F8F4F9F4FAB
:1014D00016C0882311F096E911C0772321F09EE809
:1014E000872F762F05C0662371F096E8862F70E06F
:1014F00060E02AF09A95660F771F881FDAF7880F49
:101500009695879597F90895990F0008550FAA0B9E
:10151000E0E8FEEF16161706E807F907C0F0121606
:101520001306E407F50798F0621B730B840B950B09
:1015300039F40A2661F0232B242B252B21F408955E
:101540000A2609F4A140A6958FEF811D811D0895FB
:1015500097F99F6780E870E060E008959FEF80EC66
:10156000089500240A941616170618060906089509
:1015700000240A9412161306140605060895092E6F
:101580000394000C11F4882352F0BB0F40F4BF2BDE
:1015900011F460FF04C06F5F7F4F8F4F9F4F08951E
:1015A00057FD9058440F551F59F05F3F71F0479514
:1015B000880F97FB991F61F09F3F79F087950895F9
:1015C000121613061406551FF2CF4695F1DF08C018
:1015D000161617061806991FF1CF86957105610535
:1015E00008940895E894BB2766277727CB0197F9DD
:1015F00008950E94840A08F48FEF08950E94110B49
:101600000C94BF0A0E94B10A38F00E94B80A20F078
:10161000952311F00C94A80A0C94AE0A11240C9492
:10162000F30A0E94D00A70F3959FC1F3950F50E022
:10163000551F629FF001729FBB27F00DB11D639F84
:10164000AA27F00DB11DAA1F649F6627B00DA11D2A
:10165000661F829F2227B00DA11D621F739FB00DD0
:10166000A11D621F839FA00D611D221F749F332740
:10167000A00D611D231F849F600D211D822F762FD9
:101680006A2F11249F5750409AF0F1F088234AF0B6
:10169000EE0FFF1FBB1F661F771F881F9150504022
:1016A000A9F79E3F510580F00C94A80A0C94F30A08
:1016B0005F3FE4F3983ED4F3869577956795B795A9
:1016C000F795E7959F5FC1F7FE2B880F911D9695C3
:1016D000879597F908950E94840A880B990B0895BD
:1016E000DB018F939F930E94B60BBF91AF91A29F96
:1016F000800D911DA39F900DB29F900D1124089510
:1017000097FB072E16F4009407D077FD09D00E94AE
:10171000C10B07FC05D03EF4909581959F4F08952D
:10172000709561957F4F0895A1E21A2EAA1BBB1BED
:10173000FD010DC0AA1FBB1FEE1FFF1FA217B3079D
:10174000E407F50720F0A21BB30BE40BF50B661FB3
:10175000771F881F991F1A9469F760957095809577
:1017600090959B01AC01BD01CF0108950E94DB0B58
:10177000A59F900DB49F900DA49F800D911D1124E5
:101780000895AA1BBB1B51E107C0AA1FBB1FA617C8
:10179000B70710F0A61BB70B881F991F5A95A9F71A
:1017A00080959095BC01CD010895EE0FFF1F059027
:1017B000F491E02D0994A29FB001B39FC001A39FB3
:1017C000700D811D1124911DB29F700D811D11247A
:0817D000911D0895F894FFCF6C
:1017D800013F065B4F666D7D077F6F00400000008C
:1017E800002C018C00B9007901EA00C800DC005621
:1017F8003D006E616E00696E66006F7666000D0AC8
:021808000000DE
:00000001FF
