:100000000C9462000C948A000C948A000C948A0070
:100010000C948A000C948A000C948A000C948A0038
:100020000C948A000C948A000C948A000C948A0028
:100030000C948A000C948A000C948A000C948A0018
:100040000C94FA040C948A000C94C8040C94A20436
:100050000C948A000C948A000C948A000C948A00F8
:100060000C948A000C948A000000000024002700F1
:100070002A0000000000250028002B0000000000DE
:1000800023002600290004040404040404040202DA
:100090000202020203030303030301020408102007
:1000A0004080010204081020010204081020000012
:1000B0000008000201000003040700000000000027
:1000C0000000440511241FBECFEFD8E0DEBFCDBF36
:1000D00011E0A0E0B1E0EAE0F3E102C005900D928A
:1000E000A032B107D9F722E0A0E2B1E001C01D9231
:1000F000A330B207E1F710E0C2E6D0E004C02197D8
:10010000FE010E946E09C136D107C9F70E94EE05B3
:100110000C9483090C940000AF92BF92CF92DF92AF
:10012000EF92FF920F931F93CF93DF936C017B01AC
:100130008B01040F151FEB015E01AE18BF08C0173D
:10014000D10759F06991D601ED91FC910190F081B0
:10015000E02DC6010995892B79F7C501DF91CF9173
:100160001F910F91FF90EF90DF90CF90BF90AF90D5
:100170000895FC01538D448D252F30E0842F90E0AD
:10018000821B930B541710F0CF9608950197089592
:10019000FC01918D828D981761F0A28DAE0FBF2F5B
:1001A000B11D5D968C91928D9F5F9F73928F90E0B1
:1001B00008958FEF9FEF0895FC01918D828D981720
:1001C00031F0828DE80FF11D858D90E008958FEF5D
:1001D0009FEF0895FC01918D228D892F90E0805C26
:1001E0009F4F821B91098F739927089589E291E0AF
:1001F0000E94EA0021E0892B09F420E0822F089573
:1002000080E090E0892B29F00E94F60081110C9487
:1002100000000895FC01A48DA80FB92FB11DA35AA9
:10022000BF4F2C91848D90E001968F739927848F16
:10023000A689B7892C93A089B1898C918370806439
:100240008C93938D848D981306C00288F389E02DDA
:1002500080818F7D80830895EF92FF920F931F938B
:10026000CF93DF93EC0181E0888F9B8D8C8D981369
:100270001AC0E889F989808185FF15C09FB7F89475
:10028000EE89FF896083E889F989808183708064C1
:1002900080839FBF81E090E0DF91CF911F910F910C
:1002A000FF90EF900895F62E0B8D10E00F5F1F4F1B
:1002B0000F731127E02E8C8D8E110CC00FB607FC2A
:1002C000FACFE889F989808185FFF5CFCE010E94B8
:1002D0000A01F1CFEB8DEC0FFD2FF11DE35AFF4F1B
:1002E000F0829FB7F8940B8FEA89FB898081806246
:1002F000CFCFCF93DF93EC01888D8823B9F0AA8903
:10030000BB89E889F9898C9185FD03C0808186FDD0
:100310000DC00FB607FCF7CF8C9185FFF2CF80811F
:1003200085FFEDCFCE010E940A01E9CFDF91CF9189
:100330000895833081F028F4813099F08230A9F05B
:1003400008958730A9F08830C9F08430B1F48091E5
:1003500080008F7D03C0809180008F778093800024
:10036000089584B58F7784BD089584B58F7DFBCFC4
:100370008091B0008F778093B00008958091B00095
:100380008F7DF9CFCF93DF93282F30E0F901E2552D
:10039000FF4F8491F901E656FF4FD491F901EA57D6
:1003A000FF4FC491CC23A1F081110E949901EC2F41
:1003B000F0E0EE0FFF1FE458FF4FA591B491EC91D0
:1003C000ED2381E090E009F480E0DF91CF91089582
:1003D00080E090E0FACF1F93CF93DF93282F30E097
:1003E000F901E255FF4F8491F901E656FF4FD49190
:1003F000F901EA57FF4FC491CC23A9F0162F8111C0
:100400000E949901EC2FF0E0EE0FFF1FEE58FF4F16
:10041000A591B4918FB7F894EC91111108C0D095C3
:10042000DE23DC938FBFDF91CF911F910895DE2BE8
:10043000F8CFCF93DF93C9EFD1E060E088850E94C9
:10044000EB0160E089850E94EB0161E088850E94F4
:10045000EB0161E08985DF91CF910C94EB01CF93A3
:10046000DF93C9EFD1E061E088850E94EB0161E094
:1004700089850E94EB0160E089850E94EB0160E0C4
:100480008885DF91CF910C94EB0161E089E00C94B9
:10049000EB01CF93DF9390E0FC01E656FF4F2491F0
:1004A0008A579F4FFC0184918823C9F090E0880F00
:1004B000991FFC01E859FF4FA591B491FC01EE583A
:1004C000FF4FC591D49161110DC09FB7F8948C91E5
:1004D000209582238C938881282328839FBFDF91D6
:1004E000CF910895623051F49FB7F8943C91822FD8
:1004F000809583238C93E8812E2BEFCF8FB7F894D0
:10050000EC912E2B2C938FBFEACF0F931F93CF9399
:10051000DF93D82FC8E060E0809101020E94EB01D8
:100520000D2F0D2E000C110B61E0D0FF60E08091CB
:1005300002020E94EB0115950795D02F61E0809192
:1005400001020E94EB01C15031F760E0809101028D
:100550000E94EB0161E0809102020E94EB0161E0E8
:10056000809101020E94EB0160E0809102020E94F2
:10057000490283EC90E00197F1F7809102020E941A
:10058000C2018C0181110AC061E0809102020E94C7
:10059000490260E0809102020E94EB01C3ECD0E0CE
:1005A000CE010197F1F761E0809102020E944902B9
:1005B0002197F1F7C8019927DF91CF911F910F91F2
:1005C00008950F931F93CF93DF9300D000D0CDB742
:1005D000DEB730910002A9EFB1E08E010F5F1F4F2F
:1005E000AC014C5F5F4FFC012191CF012D93BF0106
:1005F00061507109FB012081230FF80121938F01C4
:100600008417950781F70E942F0280E40E948502DB
:100610000E9419020E942F028091FE010E94850211
:1006200089810E9485028A810E9485028B810E94B5
:1006300085028C810E9485020E9419020E942F026D
:100640008091FF010E9485020F900F900F900F90F4
:10065000DF91CF911F910F910C9419020F931F936B
:10066000CF93DF93D82FE62FF0E0EF5FFE4F80812E
:1006700009EF11E0ED2FF0E0E750FE4F8083F80125
:10068000C781C80F0E942F0284E40E9485020E9445
:1006900019020E942F028D2F806C0E9485028C2FE0
:1006A0000E9485020E9419020E942F02F801868191
:1006B0000E948502DF91CF911F910F910C94190236
:1006C0006FE780E00E942E036FE781E00E942E0317
:1006D0006FE782E00E942E036FE783E00E942E0303
:1006E000E9EFF1E0108211821282138208952FB790
:1006F000F8946091250170912601809127019091D5
:1007000028012FBF08950F931F938091E90184FD65
:1007100018C08091EA010E94C2013091E90133FBC7
:10072000222720F935FB332730F9232731E0892BA5
:1007300009F030E023278091E80120FB80F98093C5
:10074000E8018091E80180FFCCC082FDCAC081FD34
:10075000A0C082608093E8010E9477036093F50156
:100760007093F6018093F7019093F8018091E8016E
:1007700080FD27C082FF62C08B7F8093E80183FDEC
:1007800005C08091F3018F5F8093F3018091E801B0
:10079000877F80648093E8010E9477036093F5016E
:1007A0007093F6018093F7019093F8018091E9012D
:1007B0008E7F8093E90181FF04C08D7F84608093E8
:1007C000E9018091E80182FF39C080FF37C00E94B3
:1007D00077030091F5011091F6012091F701309116
:1007E000F801AB01BC01401B510B620B730B8091F4
:1007F000ED019091EE01B0E0A0E0481759076A07BB
:100800007B07E0F08091E80183FD18C01092F301AE
:100810001092F401886080628093E8018091E90180
:1008200081608D7F8093E9010E9477036093F501D9
:100830007093F6018093F7019093F8010E9477037B
:100840000091F5011091F6012091F7013091F80126
:10085000AB01BC01401B510B620B730B8091EF018C
:100860009091F001B0E0A0E0481759076A077B07B4
:1008700068F08091F301882349F08093F40110928D
:10088000F3018091E80180618093E8011F910F914D
:1008900008950E9477030091F5011091F6012091CF
:1008A000F7013091F801AB01BC01401B510B620B09
:1008B000730B8091EB019091EC01B0E0A0E0481740
:1008C00059076A077B0708F451CF8091E8018460DB
:1008D00080688093E8018091E90182608093E9015A
:1008E00045CF8091E8018D7F8093E8013FCF80E480
:1008F00080937C0080917A00806480937A0080915C
:100900007A0086FDFCCF8091780060917900762F87
:10091000682F072E000C880B990B0E94100820E00E
:1009200030E040EA50E40E94740820E030E040E803
:100930005AE30E94740820E030E040E850E40E944E
:10094000740808951F920F920FB60F9211242F93DF
:100950003F934F935F936F937F938F939F93AF9347
:10096000BF93EF93FF9389E291E00E940A01FF9108
:10097000EF91BF91AF919F918F917F916F915F9117
:100980004F913F912F910F900FBE0F901F90189590
:100990001F920F920FB60F9211242F938F939F9354
:1009A000EF93FF93E0913901F0913A018081E0915A
:1009B0003F01F091400182FD1BC090818091420176
:1009C0008F5F8F7320914301821741F0E0914201C4
:1009D000F0E0E75DFE4F958F80934201FF91EF912C
:1009E0009F918F912F910F900FBE0F901F90189590
:1009F0008081F4CF1F920F920FB60F9211242F9384
:100A00003F938F939F93AF93BF93809125019091D4
:100A10002601A0912701B09128013091240123E003
:100A2000230F2D3758F50196A11DB11D20932401E8
:100A30008093250190932601A0932701B09328016C
:100A40008091200190912101A0912201B091230178
:100A50000196A11DB11D8093200190932101A093C7
:100A60002201B0932301BF91AF919F918F913F914C
:100A70002F910F900FBE0F901F90189526E8230F0F
:100A80000296A11DB11DD2CF0F931F93CF93DF9379
:100A9000E9E2F1E01382128288EE93E0A0E0B0E098
:100AA00084839583A683B78381E191E091838083DA
:100AB00085EC90E09587848784EC90E09787868723
:100AC00080EC90E0918B808B81EC90E0938B828B1B
:100AD00082EC90E0958B848B86EC90E0978B868BF4
:100AE000118E128E138E148EC9EFD1E083E08887A9
:100AF00082E0898761E083E00E94490261E08985A4
:100B00000E944902C8EED1E01B861C861D861E8607
:100B10001F86188A84E08A838CE390E09C838B8311
:100B200084EF91E09E838D8380E991E09A878987A5
:100B30008CE291E098878F8309EE11E0F8018081C3
:100B4000877C8F7B808362E084E00E944902F80109
:100B500080818062808360E08A810E944902F8017E
:100B60008081877F8083C7EDD1E0188219821A8245
:100B70001B82188619861A861B861D861E86188A71
:100B80001F8680E197E2A0E0B0E08C839D83AE8376
:100B9000BF8311E01C870E947703688379838A836F
:100BA0009B831D87E6ECF1E0108211821282138292
:100BB000108611861286138614861686108A17866A
:100BC00088EB9BE0A0E0B0E084839583A683B783A5
:100BD0001587DF91CF911F910F910895789484B577
:100BE000826084BD84B5816084BD85B5826085BD29
:100BF00085B5816085BD80916E00816080936E00B7
:100C000010928100809181008260809381008091A8
:100C10008100816080938100809180008160809359
:100C200080008091B10084608093B1008091B00019
:100C300081608093B00080917A00846080937A0014
:100C400080917A00826080937A0080917A0081603E
:100C500080937A0080917A00806880937A00109265
:100C6000C100E0913901F0913A0182E08083E09186
:100C70003501F09136011082E0913701F091380191
:100C80008FEC808310924101E0913D01F0913E0193
:100C900086E08083E0913B01F0913C01808180619E
:100CA0008083E0913B01F0913C01808188608083EA
:100CB000E0913B01F0913C01808180688083E0916C
:100CC0003B01F0913C0180818F7D808361E089E070
:100CD0000E94490260E084E00E9449020E944502AD
:100CE0000E94770420E030E048EC52E40E9474084F
:100CF0000E94D8076C3484E078070CF086C00E940C
:100D000045020E94600380E48093FD0180EC8093A3
:100D1000FE018FE88093FF0189EF91E00E94E102DC
:100D200085E492E09093D6018093D5019AE0E92E74
:100D3000F12C00E010E020E8C22EDD24D3940E94C4
:100D400083030E9477038090D7019090D801A090F0
:100D5000D901B090DA01681979098A099B09809054
:100D6000DB019090DC01A090DD01B090DE01681500
:100D700079058A059B0510F0109200018091E90128
:100D800086FD0E9483038091E80184FF15C0909145
:100D9000F401913089F48F7E8093E80190930001F3
:100DA0009093E3010E9477036093D7017093D80179
:100DB0008093D9019093DA0180910001882371F129
:100DC0000E94770420E030E048EC52E40E9474086E
:100DD0000E94D807EB010E946003C092000289EFD5
:100DE00091E00E94E10283E0B82E2097F9F0CE0155
:100DF000B7010E941909962EA72E682F8B2D0E94ED
:100E00002E03C92DDA2DBA94F0CF6C34744009F456
:100E100078CF60E089E00E94EB0173CF0E9460030D
:100E20001092000289EF91E00E94E1028091D201CC
:100E30008823B1F00E9477038090C6019090C7018B
:100E4000A090C801B090C901681979098A099B0965
:100E50006093CE017093CF018093D0019093D10124
:100E60008091D201882309F440C06091CE01709135
:100E7000CF018091D0019091D1018090CA019090D2
:100E8000CB01A090CC01B090CD01681579058A0501
:100E90009B0558F12091D301211151C0A501940166
:100EA0000E942D09C501B4010E9409098090C60164
:100EB0009090C701A090C801B090C901DC01CB019E
:100EC000880D991DAA1DBB1D8093C6019093C70173
:100ED000A093C801B093C901E091D501F091D6016A
:100EE000309709F00995D092D4010E94770420E050
:100EF00030E048EC52E40E9474080E94D8076C3439
:100F000084E07807ACF58091D20181110CC0D092B9
:100F1000D2010E9477036093C6017093C70180934A
:100F2000C8019093C9010115110509F408CF0E9469
:100F3000F600882309F403CF0E94000000CF10922E
:100F4000D2010E9477038090C6019090C701A090C3
:100F5000C801B090C901681979098A099B09609391
:100F6000CE017093CF018093D0019093D101B4CF83
:100F70006A367440C4F21092D2010E9477038090C6
:100F8000C6019090C701A090C801B090C90168192E
:100F900079098A099B096093CE017093CF018093F0
:100FA000D0019093D10160E089E00E94EB01BBCFBA
:100FB0000E94DF076894B1110C946E0808950E9496
:100FC000530888F09F5798F0B92F9927B751B0F080
:100FD000E1F0660F771F881F991F1AF0BA95C9F7BD
:100FE00014C0B13091F00E946D08B1E008950C94E6
:100FF0006D08672F782F8827B85F39F0B93FCCF399
:10100000869577956795B395D9F73EF49095809539
:10101000709561957F4F8F4F9F4F0895E89409C059
:1010200097FB3EF490958095709561957F4F8F4F1B
:101030009F4F9923A9F0F92F96E9BB279395F69531
:10104000879577956795B795F111F8CFFAF4BB0FAF
:1010500011F460FF1BC06F5F7F4F8F4F9F4F16C013
:10106000882311F096E911C0772321F09EE8872F9D
:10107000762F05C0662371F096E8862F70E060E059
:101080002AF09A95660F771F881FDAF7880F9695D2
:10109000879597F9089557FD9058440F551F59F0BB
:1010A0005F3F71F04795880F97FB991F61F09F3F55
:1010B00079F087950895121613061406551FF2CF7E
:1010C0004695F1DF08C0161617061806991FF1CFCE
:1010D00086957105610508940895E894BB276627F5
:1010E0007727CB0197F908950E9487080C94F80898
:1010F0000E94EA0838F00E94F10820F0952311F0D0
:101100000C94E1080C94E70811240C946E080E94DA
:101110004B0870F3959FC1F3950F50E0551F629FE8
:10112000F001729FBB27F00DB11D639FAA27F00D40
:10113000B11DAA1F649F6627B00DA11D661F829F67
:101140002227B00DA11D621F739FB00DA11D621F4C
:10115000839FA00D611D221F749F3327A00D611D69
:10116000231F849F600D211D822F762F6A2F11244B
:101170009F5750409AF0F1F088234AF0EE0FFF1F7E
:10118000BB1F661F771F881F91505040A9F79E3FD5
:10119000510580F00C94E1080C946E085F3FE4F375
:1011A000983ED4F3869577956795B795F795E7952B
:1011B0009F5FC1F7FE2B880F911D9695879597F934
:1011C000089597F99F6780E870E060E008959FEFC9
:1011D00080EC089500240A941616170618060906CE
:1011E000089500240A94121613061406050608959D
:1011F000092E0394000C11F4882352F0BB0F40F425
:10120000BF2B11F460FF04C06F5F7F4F8F4F9F4F64
:101210000895DB018F939F930E944F09BF91AF9177
:10122000A29F800D911DA39F900DB29F900D112440
:10123000089597FB072E16F4009407D077FD09D088
:101240000E945A0907FC05D03EF4909581959F4F66
:101250000895709561957F4F0895A1E21A2EAA1BFB
:10126000BB1BFD010DC0AA1FBB1FEE1FFF1FA21756
:10127000B307E407F50720F0A21BB30BE40BF50B53
:10128000661F771F881F991F1A9469F760957095DC
:10129000809590959B01AC01BD01CF0108950E94FE
:1012A0007409A59F900DB49F900DA49F800D911D72
:1012B00011240895AA1BBB1B51E107C0AA1FBB1F25
:1012C000A617B70710F0A61BB70B881F991F5A95D2
:1012D000A9F780959095BC01CD010895EE0FFF1FF1
:1012E0000590F491E02D0994A29FB001B39FC00135
:1012F000A39F700D811D1124911DB29F700D811D42
:0A1300001124911D0895F894FFCF09
:10130A00013F065B4F666D7D077F6F00400000005E
:10131A00002C018C00B9007901EA00C800DC000049
:00000001FF
