:100000000C9462000C948A000C948A000C948A0070
:100010000C948A000C948A000C948A000C948A0038
:100020000C948A000C948A000C948A000C948A0028
:100030000C948A000C948A000C948A000C948A0018
:100040000C94FA040C948A000C94C8040C94A20436
:100050000C948A000C948A000C948A000C948A00F8
:100060000C948A000C948A000000000024002700F1
:100070002A0000000000250028002B0000000000DE
:1000800023002600290004040404040404040202DA
:100090000202020203030303030301020408102007
:1000A0004080010204081020010204081020000012
:1000B0000008000201000003040700000000000027
:1000C0000000440511241FBECFEFD8E0DEBFCDBF36
:1000D00011E0A0E0B1E0E8EEF3E102C005900D927E
:1000E000A232B107D9F722E0A2E2B1E001C01D922D
:1000F000A530B207E1F710E0C2E6D0E004C02197D6
:10010000FE010E94DD09C136D107C9F70E94EE0544
:100110000C94F2090C940000AF92BF92CF92DF9240
:10012000EF92FF920F931F93CF93DF936C017B01AC
:100130008B01040F151FEB015E01AE18BF08C0173D
:10014000D10759F06991D601ED91FC910190F081B0
:10015000E02DC6010995892B79F7C501DF91CF9173
:100160001F910F91FF90EF90DF90CF90BF90AF90D5
:100170000895FC01538D448D252F30E0842F90E0AD
:10018000821B930B541710F0CF9608950197089592
:10019000FC01918D828D981761F0A28DAE0FBF2F5B
:1001A000B11D5D968C91928D9F5F9F73928F90E0B1
:1001B00008958FEF9FEF0895FC01918D828D981720
:1001C00031F0828DE80FF11D858D90E008958FEF5D
:1001D0009FEF0895FC01918D228D892F90E0805C26
:1001E0009F4F821B91098F73992708958BE291E0AD
:1001F0000E94EA0021E0892B09F420E0822F089573
:1002000080E090E0892B29F00E94F60081110C9487
:1002100000000895FC01A48DA80FB92FB11DA35AA9
:10022000BF4F2C91848D90E001968F739927848F16
:10023000A689B7892C93A089B1898C918370806439
:100240008C93938D848D981306C00288F389E02DDA
:1002500080818F7D80830895EF92FF920F931F938B
:10026000CF93DF93EC0181E0888F9B8D8C8D981369
:100270001AC0E889F989808185FF15C09FB7F89475
:10028000EE89FF896083E889F989808183708064C1
:1002900080839FBF81E090E0DF91CF911F910F910C
:1002A000FF90EF900895F62E0B8D10E00F5F1F4F1B
:1002B0000F731127E02E8C8D8E110CC00FB607FC2A
:1002C000FACFE889F989808185FFF5CFCE010E94B8
:1002D0000A01F1CFEB8DEC0FFD2FF11DE35AFF4F1B
:1002E000F0829FB7F8940B8FEA89FB898081806246
:1002F000CFCFCF93DF93EC01888D8823B9F0AA8903
:10030000BB89E889F9898C9185FD03C0808186FDD0
:100310000DC00FB607FCF7CF8C9185FFF2CF80811F
:1003200085FFEDCFCE010E940A01E9CFDF91CF9189
:100330000895833081F028F4813099F08230A9F05B
:1003400008958730A9F08830C9F08430B1F48091E5
:1003500080008F7D03C0809180008F778093800024
:10036000089584B58F7784BD089584B58F7DFBCFC4
:100370008091B0008F778093B00008958091B00095
:100380008F7DF9CFCF93DF93282F30E0F901E2552D
:10039000FF4F8491F901E656FF4FD491F901EA57D6
:1003A000FF4FC491CC23A1F081110E949901EC2F41
:1003B000F0E0EE0FFF1FE458FF4FA591B491EC91D0
:1003C000ED2381E090E009F480E0DF91CF91089582
:1003D00080E090E0FACF1F93CF93DF93282F30E097
:1003E000F901E255FF4F8491F901E656FF4FD49190
:1003F000F901EA57FF4FC491CC23A9F0162F8111C0
:100400000E949901EC2FF0E0EE0FFF1FEE58FF4F16
:10041000A591B4918FB7F894EC91111108C0D095C3
:10042000DE23DC938FBFDF91CF911F910895DE2BE8
:10043000F8CFCF93DF93CBEFD1E060E088850E94C7
:10044000EB0160E089850E94EB0161E088850E94F4
:10045000EB0161E08985DF91CF910C94EB01CF93A3
:10046000DF93CBEFD1E061E088850E94EB0161E092
:1004700089850E94EB0160E089850E94EB0160E0C4
:100480008885DF91CF910C94EB0161E089E00C94B9
:10049000EB01CF93DF9390E0FC01E656FF4F2491F0
:1004A0008A579F4FFC0184918823C9F090E0880F00
:1004B000991FFC01E859FF4FA591B491FC01EE583A
:1004C000FF4FC591D49161110DC09FB7F8948C91E5
:1004D000209582238C938881282328839FBFDF91D6
:1004E000CF910895623051F49FB7F8943C91822FD8
:1004F000809583238C93E8812E2BEFCF8FB7F894D0
:10050000EC912E2B2C938FBFEACF0F931F93CF9399
:10051000DF93D82FC8E060E0809103020E94EB01D6
:100520000D2F0D2E000C110B61E0D0FF60E08091CB
:1005300004020E94EB0115950795D02F61E0809190
:1005400003020E94EB01C15031F760E08091030289
:100550000E94EB0161E0809104020E94EB0161E0E6
:10056000809103020E94EB0160E0809104020E94EE
:10057000490283EC90E00197F1F7809104020E9418
:10058000C2018C0181110AC061E0809104020E94C5
:10059000490260E0809104020E94EB01C3ECD0E0CC
:1005A000CE010197F1F761E0809104020E944902B7
:1005B0002197F1F7C8019927DF91CF911F910F91F2
:1005C00008950F931F93CF93DF93D82FE62FF0E07A
:1005D000EF5FFE4F80810BEF11E0ED2FF0E0E55073
:1005E000FE4F8083F801C781C80F0E942F0284E468
:1005F0000E9485020E9419020E942F028D2F806C9A
:100600000E9485028C2F0E9485020E9419020E947E
:100610002F02F80186810E948502DF91CF911F9100
:100620000F910C9419026FE780E00E94E1026FE7DE
:1006300081E00E94E1026FE782E00E94E1026FE741
:1006400083E00E94E102EBEFF1E01082118212825E
:10065000138208950F931F93CF93DF9300D000D0A0
:10066000CDB7DEB730910202ABEFB1E08E010F5F84
:100670001F4FAC014C5F5F4FFC012191CF012D93C7
:10068000BF0161507109FB012081230FF801219303
:100690008F018417950781F70E942F0280E40E9442
:1006A00085020E9419020E942F02809100020E947E
:1006B000850289810E9485028A810E9485028B8140
:1006C0000E9485028C810E9485020E9419020E946C
:1006D0002F02809101020E9485020F900F900F90CF
:1006E0000F90DF91CF911F910F910C9419022FB7AA
:1006F000F8946091270170912801809129019091CF
:100700002A012FBF08950F931F938091EB0184FD61
:1007100018C08091EC010E94C2013091EB0133FBC3
:10072000222720F935FB332730F9232731E0892BA5
:1007300009F030E023278091EA0120FB80F98093C3
:10074000EA018091EA0180FFCCC082FDCAC081FD30
:10075000A0C082608093EA010E9477036093F70152
:100760007093F8018093F9019093FA018091EA0166
:1007700080FD27C082FF62C08B7F8093EA0183FDEA
:1007800005C08091F5018F5F8093F5018091EA01AA
:10079000877F80648093EA010E9477036093F7016A
:1007A0007093F8018093F9019093FA018091EB0125
:1007B0008E7F8093EB0181FF04C08D7F84608093E6
:1007C000EB018091EA0182FF39C080FF37C00E94AF
:1007D00077030091F7011091F8012091F901309110
:1007E000FA01AB01BC01401B510B620B730B8091F2
:1007F000EF019091F001B0E0A0E0481759076A07B7
:100800007B07E0F08091EA0183FD18C01092F501AA
:100810001092F601886080628093EA018091EB017A
:1008200081608D7F8093EB010E9477036093F701D5
:100830007093F8018093F9019093FA010E94770375
:100840000091F7011091F8012091F9013091FA011E
:10085000AB01BC01401B510B620B730B8091F1018A
:100860009091F201B0E0A0E0481759076A077B07B2
:1008700068F08091F501882349F08093F601109289
:10088000F5018091EA0180618093EA011F910F9147
:1008900008950E9477030091F7011091F8012091CB
:1008A000F9013091FA01AB01BC01401B510B620B05
:1008B000730B8091ED019091EE01B0E0A0E048173C
:1008C00059076A077B0708F451CF8091EA018460D9
:1008D00080688093EA018091EB0182608093EB0154
:1008E00045CF8091EA018D7F8093EA013FCF80E47C
:1008F00080937C0080917A00806480937A0080915C
:100900007A0086FDFCCF8091780060917900762F87
:10091000682F072E000C880B990B0E947F0820E09F
:1009200030E040EA50E40E94E30820E030E040E894
:100930005AE30E94E30820E030E040E850E40E94DF
:10094000E30808951F920F920FB60F9211242F9370
:100950003F934F935F936F937F938F939F93AF9347
:10096000BF93EF93FF938BE291E00E940A01FF9106
:10097000EF91BF91AF919F918F917F916F915F9117
:100980004F913F912F910F900FBE0F901F90189590
:100990001F920F920FB60F9211242F938F939F9354
:1009A000EF93FF93E0913B01F0913C018081E09156
:1009B0004101F091420182FD1BC090818091440170
:1009C0008F5F8F7320914501821741F0E0914401C0
:1009D000F0E0E55DFE4F958F80934401FF91EF912C
:1009E0009F918F912F910F900FBE0F901F90189590
:1009F0008081F4CF1F920F920FB60F9211242F9384
:100A00003F938F939F93AF93BF93809127019091D2
:100A10002801A0912901B0912A013091260123E0FB
:100A2000230F2D3758F50196A11DB11D20932601E6
:100A30008093270190932801A0932901B0932A0164
:100A40008091220190912301A0912401B091250170
:100A50000196A11DB11D8093220190932301A093C3
:100A60002401B0932501BF91AF919F918F913F9148
:100A70002F910F900FBE0F901F90189526E8230F0F
:100A80000296A11DB11DD2CF0F931F93CF93DF9379
:100A9000EBE2F1E01382128288EE93E0A0E0B0E096
:100AA00084839583A683B78381E191E091838083DA
:100AB00085EC90E09587848784EC90E09787868723
:100AC00080EC90E0918B808B81EC90E0938B828B1B
:100AD00082EC90E0958B848B86EC90E0978B868BF4
:100AE000118E128E138E148ECBEFD1E083E08887A7
:100AF00082E0898761E083E00E94490261E08985A4
:100B00000E944902CAEED1E01B861C861D861E8605
:100B10001F86188A84E08A838CE390E09C838B8311
:100B200084EF91E09E838D8380E991E09A878987A5
:100B30008CE291E098878F830BEE11E0F8018081C1
:100B4000877C8F7B808362E084E00E944902F80109
:100B500080818062808360E08A810E944902F8017E
:100B60008081877F8083C9EDD1E0188219821A8243
:100B70001B82188619861A861B861D861E86188A71
:100B80001F8680E197E2A0E0B0E08C839D83AE8376
:100B9000BF8311E01C870E947703688379838A836F
:100BA0009B831D87E8ECF1E0108211821282138290
:100BB000108611861286138614861686108A17866A
:100BC00088EB9BE0A0E0B0E084839583A683B783A5
:100BD0001587DF91CF911F910F910895CF93DF93E8
:100BE000CDB7DEB7A1970FB6F894DEBF0FBECDBF6D
:100BF000789484B5826084BD84B5816084BD85B5F8
:100C0000826085BD85B5816085BD80916E00816003
:100C100080936E00109281008091810082608093A9
:100C200081008091810081608093810080918000AB
:100C30008160809380008091B10084608093B100D6
:100C40008091B00081608093B00080917A008460D0
:100C500080937A0080917A00826080937A008091FC
:100C60007A00816080937A0080917A008068809316
:100C70007A001092C100E0913B01F0913C0182E0CA
:100C80008083E0913701F09138011082E0913901C1
:100C9000F0913A018FEC808310924301E0913F0183
:100CA000F091400186E08083E0913D01F0913E01AA
:100CB000808180618083E0913D01F0913E018081DF
:100CC00088608083E0913D01F0913E0180818068E1
:100CD0008083E0913D01F0913E0180818F7D808392
:100CE00061E089E00E94490260E084E00E944902DC
:100CF0000E9445020E94770420E030E048EC52E474
:100D00000E94E3080E9447086C3484E078070CF0E6
:100D1000CBC00E9445020E94130380E48093FF0130
:100D200080EC809300028FE8809301028BEF91E0CA
:100D30000E942A0385E492E09093D8018093D70122
:100D40009AE0492E512C612C712C2AE0222E312C54
:100D500030E0832E30E0932E0E9483030E947703BD
:100D60000091D9011091DA012091DB013091DC0171
:100D7000601B710B820B930B0091DD011091DE0162
:100D80002091DF013091E00160177107820793071E
:100D900010F0109200018091EB0186FD0E94830308
:100DA0008091EA0184FF15C09091F601913089F499
:100DB0008F7E8093EA01909300019093E5010E9459
:100DC00077036093D9017093DA018093DB019093EC
:100DD000DC0180910001882309F417C10E94770487
:100DE00020E030E048EC52E40E94E3080E9447080B
:100DF0008B01E0E8E09302028BEF91E00E942A036E
:100E000083E0C82ED12CE12CF12CC601011511056F
:100E100009F469C0D7FE51C06DE28BE291E00E94F7
:100E20002C0122273327A9012C193D094E095F09FE
:100E300019A2CE0181965C01CA01B901A3019201F8
:100E40000E949C09605DF50162935F0121153105E7
:100E50004105510589F7A114B10461F0019000200A
:100E6000E9F73197AF014A195B09B5018BE291E0CF
:100E70000E948C0042E050E06FE171E08BE291E073
:100E80000E948C00C801B1010E948809B62EA72ECD
:100E9000682F8C2D0E94E1020B2D1A2DF1E0CF1A44
:100EA000D108E108F108B1CF6C34744009F433CFB4
:100EB00060E089E00E94EB012ECF19A2A701960104
:100EC000CE0181965C01CA01B901A30192010E9481
:100ED0009C09605DF50162935F01211531054105B3
:100EE000510589F7B8CF892B21F468E480E00E948E
:100EF000E1028091D4018823B1F00E947703009130
:100F0000C8011091C9012091CA013091CB01601B29
:100F1000710B820B930B6093D0017093D10180937E
:100F2000D2019093D3018091D401882309F441C068
:100F30006091D0017091D1018091D2019091D30143
:100F4000C090CC01D090CD01E090CE01F090CF01C7
:100F50006C157D058E059F0560F12091D50121114D
:100F60005DC0A70196010E949C09C701B6010E94BD
:100F700078090091C8011091C9012091CA013091EE
:100F8000CB01DC01CB01800F911FA21FB31F809307
:100F9000C8019093C901A093CA01B093CB01E0911D
:100FA000D701F091D801309709F0099581E080933D
:100FB000D6010E94770420E030E048EC52E40E9421
:100FC000E3080E9447086C3494E079070CF03FC0B6
:100FD0008091D40181110DC0E1E0E093D4010E9421
:100FE00077036093C8017093C9018093CA019093FD
:100FF000CB018114910409F4AFCE0E94F60088233E
:1010000009F4AACE0E940000A7CE0E9413031092FA
:1010100002028BEF91E00E942A036BCF1092D40161
:101020000E9477030091C8011091C9012091CA0163
:101030003091CB01601B710B820B930B6093D0013D
:101040007093D1018093D2019093D301A8CF6A36D7
:1010500074407CF21092D4010E9477030091C80181
:101060001091C9012091CA013091CB01601B710B15
:10107000820B930B6093D0017093D1018093D201C6
:101080009093D30160E089E00E94EB01B2CF0E940F
:101090004E086894B1110C94DD0808950E94C208AE
:1010A00088F09F5798F0B92F9927B751B0F0E1F029
:1010B000660F771F881F991F1AF0BA95C9F714C0D9
:1010C000B13091F00E94DC08B1E008950C94DC0886
:1010D000672F782F8827B85F39F0B93FCCF3869512
:1010E00077956795B395D9F73EF49095809570956F
:1010F00061957F4F8F4F9F4F0895E89409C097FBEC
:101100003EF490958095709561957F4F8F4F9F4FDE
:101110009923A9F0F92F96E9BB279395F695879522
:1011200077956795B795F111F8CFFAF4BB0F11F4E5
:1011300060FF1BC06F5F7F4F8F4F9F4F16C088238C
:1011400011F096E911C0772321F09EE8872F762FC2
:1011500005C0662371F096E8862F70E060E02AF003
:101160009A95660F771F881FDAF7880F96958795EF
:1011700097F9089557FD9058440F551F59F05F3F58
:1011800071F04795880F97FB991F61F09F3F79F0A9
:1011900087950895121613061406551FF2CF46952B
:1011A000F1DF08C0161617061806991FF1CF8695AD
:1011B0007105610508940895E894BB276627772791
:1011C000CB0197F908950E94F6080C9467090E94D4
:1011D000590938F00E94600920F0952311F00C9411
:1011E00050090C94560911240C94DD080E94BA0889
:1011F00070F3959FC1F3950F50E0551F629FF0016A
:10120000729FBB27F00DB11D639FAA27F00DB11D82
:10121000AA1F649F6627B00DA11D661F829F22270B
:10122000B00DA11D621F739FB00DA11D621F839F92
:10123000A00D611D221F749F3327A00D611D231F68
:10124000849F600D211D822F762F6A2F11249F57B6
:1012500050409AF0F1F088234AF0EE0FFF1FBB1FB9
:10126000661F771F881F91505040A9F79E3F510578
:1012700080F00C9450090C94DD085F3FE4F3983E35
:10128000D4F3869577956795B795F795E7959F5F22
:10129000C1F7FE2B880F911D9695879597F90895B4
:1012A00097F99F6780E870E060E008959FEF80EC19
:1012B000089500240A9416161706180609060895BC
:1012C00000240A9412161306140605060895092E22
:1012D0000394000C11F4882352F0BB0F40F4BF2B91
:1012E00011F460FF04C06F5F7F4F8F4F9F4F0895D1
:1012F000DB018F939F930E94BE09BF91AF91A29F84
:10130000800D911DA39F900DB29F900D1124089503
:1013100097FB072E16F4009407D077FD09D00E94A2
:10132000C90907FC05D03EF4909581959F4F08951B
:10133000709561957F4F0895A1E21A2EAA1BBB1BE1
:10134000FD010DC0AA1FBB1FEE1FFF1FA217B30791
:10135000E407F50720F0A21BB30BE40BF50B661FA7
:10136000771F881F991F1A9469F76095709580956B
:1013700090959B01AC01BD01CF0108950E94E30946
:10138000A59F900DB49F900DA49F800D911D1124D9
:101390000895AA1BBB1B51E107C0AA1FBB1FA617BC
:1013A000B70710F0A61BB70B881F991F5A95A9F70E
:1013B00080959095BC01CD010895EE0FFF1F05901B
:1013C000F491E02D0994A29FB001B39FC001A39FA7
:1013D000700D811D1124911DB29F700D811D11246E
:0813E000911D0895F894FFCF60
:1013E800013F065B4F666D7D077F6F004000000080
:1013F800002C018C00B9007901EA00C800DC000D5E
:021408000A00D8
:00000001FF
